{
  "address": "0x274dBB4932f645BcFea2b83425FF37222871c3fF",
  "abi": [
    {
      "anonymous": false,
      "inputs": [
        {
          "indexed": true,
          "internalType": "address",
          "name": "sender",
          "type": "address"
        },
        {
          "indexed": false,
          "internalType": "uint256",
          "name": "amount",
          "type": "uint256"
        }
      ],
      "name": "CollateralDeposit",
      "type": "event"
    },
    {
      "anonymous": false,
      "inputs": [
        {
          "indexed": true,
          "internalType": "address",
          "name": "previousOwner",
          "type": "address"
        },
        {
          "indexed": true,
          "internalType": "address",
          "name": "newOwner",
          "type": "address"
        }
      ],
      "name": "OwnershipTransferred",
      "type": "event"
    },
    {
      "anonymous": false,
      "inputs": [
        {
          "indexed": true,
          "internalType": "address",
          "name": "receiver",
          "type": "address"
        },
        {
          "indexed": false,
          "internalType": "uint256",
          "name": "amount",
          "type": "uint256"
        }
      ],
      "name": "Withdrawal",
      "type": "event"
    },
    {
      "inputs": [],
      "name": "aavePoolProxy",
      "outputs": [
        {
          "internalType": "address",
          "name": "",
          "type": "address"
        }
      ],
      "stateMutability": "view",
      "type": "function"
    },
    {
      "inputs": [
        {
          "internalType": "uint256",
          "name": "_amount",
          "type": "uint256"
        }
      ],
      "name": "depositCollateral",
      "outputs": [],
      "stateMutability": "nonpayable",
      "type": "function"
    },
    {
      "inputs": [],
      "name": "owner",
      "outputs": [
        {
          "internalType": "address",
          "name": "",
          "type": "address"
        }
      ],
      "stateMutability": "view",
      "type": "function"
    },
    {
      "inputs": [],
      "name": "renounceOwnership",
      "outputs": [],
      "stateMutability": "nonpayable",
      "type": "function"
    },
    {
      "inputs": [
        {
          "internalType": "address",
          "name": "newOwner",
          "type": "address"
        }
      ],
      "name": "transferOwnership",
      "outputs": [],
      "stateMutability": "nonpayable",
      "type": "function"
    },
    {
      "inputs": [
        {
          "internalType": "address",
          "name": "_sender",
          "type": "address"
        },
        {
          "internalType": "uint256",
          "name": "_amount",
          "type": "uint256"
        }
      ],
      "name": "withdrawCollateral",
      "outputs": [],
      "stateMutability": "nonpayable",
      "type": "function"
    }
  ],
  "transactionHash": "0xece61b5879f34b718733ab61d089e15741d07be304db0d3d55985e547eabedbd",
  "args": [],
  "numDeployments": 3,
  "solcInputHash": "1764beff42b85ea59166c5c9af4e26bb",
  "bytecode": "0x6080604052600280546001600160a01b0319167348914c788295b5db23af2b5f0b3be775c4ea944017905534801561003657600080fd5b5061004033610045565b610095565b600080546001600160a01b038381166001600160a01b0319831681178455604051919092169283917f8be0079c531659141344cd1fd0a4f28419497f9722a3daafe3b4186f6b6457e09190a35050565b61061c806100a46000396000f3fe608060405234801561001057600080fd5b50600436106100625760003560e01c8063350c35e9146100675780633feeeabb1461007c578063715018a6146100ab5780638da5cb5b146100b3578063bad4a01f146100c4578063f2fde38b146100d7575b600080fd5b61007a61007536600461051f565b6100ea565b005b60025461008f906001600160a01b031681565b6040516001600160a01b03909116815260200160405180910390f35b61007a6101cb565b6000546001600160a01b031661008f565b61007a6100d2366004610549565b6101df565b61007a6100e5366004610562565b6103db565b6100f2610459565b600254604051631a4ca37b60e21b8152732c9678042d52b97d27f2bd2947f7111d93f3dd0d6004820152602481018390526001600160a01b038481166044830152909116906369328dec906064016020604051808303816000875af115801561015f573d6000803e3d6000fd5b505050506040513d601f19601f820116820180604052508101906101839190610584565b50816001600160a01b03167f7fcf532c15f0a6db0bd6d0e038bea71d30d808c7d98cb3bf7268a95bf5081b65826040516101bf91815260200190565b60405180910390a25050565b6101d3610459565b6101dd60006104b3565b565b806000036101ec57600080fd5b6040516323b872dd60e01b815233600482015230602482015260448101829052732c9678042d52b97d27f2bd2947f7111d93f3dd0d906323b872dd906064016020604051808303816000875af115801561024a573d6000803e3d6000fd5b505050506040513d601f19601f8201168201806040525081019061026e919061059d565b5060025460405163095ea7b360e01b81526001600160a01b03909116600482015260248101829052732c9678042d52b97d27f2bd2947f7111d93f3dd0d9063095ea7b3906044016020604051808303816000875af11580156102d4573d6000803e3d6000fd5b505050506040513d601f19601f820116820180604052508101906102f8919061059d565b5060025460405163617ba03760e01b8152732c9678042d52b97d27f2bd2947f7111d93f3dd0d600482015260248101839052306044820152600060648201526001600160a01b039091169063617ba03790608401600060405180830381600087803b15801561036657600080fd5b505af115801561037a573d6000803e3d6000fd5b5050336000908152600160205260408120805485945090925061039e9084906105bf565b909155505060405181815233907ff645c19720906ca336d36d26058a9489c6c757fe35843b75a74e3b8aa972ecf59060200160405180910390a250565b6103e3610459565b6001600160a01b03811661044d5760405162461bcd60e51b815260206004820152602660248201527f4f776e61626c653a206e6577206f776e657220697320746865207a65726f206160448201526564647265737360d01b60648201526084015b60405180910390fd5b610456816104b3565b50565b6000546001600160a01b031633146101dd5760405162461bcd60e51b815260206004820181905260248201527f4f776e61626c653a2063616c6c6572206973206e6f7420746865206f776e65726044820152606401610444565b600080546001600160a01b038381166001600160a01b0319831681178455604051919092169283917f8be0079c531659141344cd1fd0a4f28419497f9722a3daafe3b4186f6b6457e09190a35050565b80356001600160a01b038116811461051a57600080fd5b919050565b6000806040838503121561053257600080fd5b61053b83610503565b946020939093013593505050565b60006020828403121561055b57600080fd5b5035919050565b60006020828403121561057457600080fd5b61057d82610503565b9392505050565b60006020828403121561059657600080fd5b5051919050565b6000602082840312156105af57600080fd5b8151801515811461057d57600080fd5b808201808211156105e057634e487b7160e01b600052601160045260246000fd5b9291505056fea264697066735822122056744326620db955ac43acfbbf1df9bd3bbf3157ecdc1e0bef1f1d3ee31b198764736f6c63430008110033",
  "devdoc": {
    "kind": "dev",
    "methods": {
      "depositCollateral(uint256)": {
        "details": "Deposits collateral into the contract.",
        "params": {
          "_amount": "The amount of the asset being deposited. Requirements: - The amount must be greater than zero. - The asset must be approved for transfer by the contract. - The collateral is supplied to the Aave pool. Emits a `CollateralDeposit` event."
        }
      },
      "owner()": {
        "details": "Returns the address of the current owner."
      },
      "renounceOwnership()": {
        "details": "Leaves the contract without owner. It will not be possible to call `onlyOwner` functions anymore. Can only be called by the current owner. NOTE: Renouncing ownership will leave the contract without an owner, thereby removing any functionality that is only available to the owner."
      },
      "transferOwnership(address)": {
        "details": "Transfers ownership of the contract to a new account (`newOwner`). Can only be called by the current owner."
      }
    },
    "version": 1
  },
  "userdoc": {
    "kind": "user",
    "methods": {},
    "version": 1
  },
  "storageLayout": {
    "storage": [
      {
        "astId": 1227,
        "contract": "contracts/BambaStake.sol:BambaStake",
        "label": "_owner",
        "offset": 0,
        "slot": "0",
        "type": "t_address"
      },
      {
        "astId": 1447,
        "contract": "contracts/BambaStake.sol:BambaStake",
        "label": "collateralValueInWETH",
        "offset": 0,
        "slot": "1",
        "type": "t_mapping(t_address,t_uint256)"
      },
      {
        "astId": 1462,
        "contract": "contracts/BambaStake.sol:BambaStake",
        "label": "aavePoolProxy",
        "offset": 0,
        "slot": "2",
        "type": "t_address"
      }
    ],
    "types": {
      "t_address": {
        "encoding": "inplace",
        "label": "address",
        "numberOfBytes": "20"
      },
      "t_mapping(t_address,t_uint256)": {
        "encoding": "mapping",
        "key": "t_address",
        "label": "mapping(address => uint256)",
        "numberOfBytes": "32",
        "value": "t_uint256"
      },
      "t_uint256": {
        "encoding": "inplace",
        "label": "uint256",
        "numberOfBytes": "32"
      }
    }
  }
}